{
  "contractName": "hospital1",
  "abi": [
    {
      "inputs": [],
      "payable": false,
      "stateMutability": "nonpayable",
      "type": "constructor"
    },
    {
      "anonymous": false,
      "inputs": [
        {
          "indexed": false,
          "internalType": "address",
          "name": "admin",
          "type": "address"
        },
        {
          "indexed": false,
          "internalType": "address",
          "name": "doctor",
          "type": "address"
        }
      ],
      "name": "DrDetailsAdded",
      "type": "event"
    },
    {
      "anonymous": false,
      "inputs": [
        {
          "indexed": false,
          "internalType": "address",
          "name": "dr",
          "type": "address"
        },
        {
          "indexed": false,
          "internalType": "address",
          "name": "patient",
          "type": "address"
        }
      ],
      "name": "GrantAccessToDr",
      "type": "event"
    },
    {
      "anonymous": false,
      "inputs": [
        {
          "indexed": false,
          "internalType": "address",
          "name": "dr",
          "type": "address"
        },
        {
          "indexed": false,
          "internalType": "address",
          "name": "patient",
          "type": "address"
        }
      ],
      "name": "HealthRecordsAdded",
      "type": "event"
    },
    {
      "constant": true,
      "inputs": [
        {
          "internalType": "address",
          "name": "",
          "type": "address"
        }
      ],
      "name": "PatientInfo",
      "outputs": [
        {
          "internalType": "bool",
          "name": "state",
          "type": "bool"
        },
        {
          "internalType": "address",
          "name": "pa_Id",
          "type": "address"
        },
        {
          "internalType": "string",
          "name": "pa_Name",
          "type": "string"
        }
      ],
      "payable": false,
      "stateMutability": "view",
      "type": "function"
    },
    {
      "constant": false,
      "inputs": [
        {
          "internalType": "bool",
          "name": "_state",
          "type": "bool"
        },
        {
          "internalType": "address",
          "name": "_drId",
          "type": "address"
        },
        {
          "internalType": "string",
          "name": "_name",
          "type": "string"
        }
      ],
      "name": "setDoctorDetails",
      "outputs": [],
      "payable": false,
      "stateMutability": "nonpayable",
      "type": "function"
    },
    {
      "constant": true,
      "inputs": [
        {
          "internalType": "address",
          "name": "_Id",
          "type": "address"
        }
      ],
      "name": "getDoctorDetails",
      "outputs": [
        {
          "internalType": "bool",
          "name": "_state",
          "type": "bool"
        },
        {
          "internalType": "address",
          "name": "_drId",
          "type": "address"
        },
        {
          "internalType": "string",
          "name": "_name",
          "type": "string"
        }
      ],
      "payable": false,
      "stateMutability": "view",
      "type": "function"
    },
    {
      "constant": false,
      "inputs": [
        {
          "internalType": "string",
          "name": "_paName",
          "type": "string"
        },
        {
          "internalType": "address",
          "name": "_paId",
          "type": "address"
        },
        {
          "internalType": "string",
          "name": "_prescription",
          "type": "string"
        }
      ],
      "name": "setHealthRecordsDetails",
      "outputs": [],
      "payable": false,
      "stateMutability": "nonpayable",
      "type": "function"
    },
    {
      "constant": false,
      "inputs": [
        {
          "internalType": "bool",
          "name": "_state",
          "type": "bool"
        },
        {
          "internalType": "address",
          "name": "_paId",
          "type": "address"
        },
        {
          "internalType": "string",
          "name": "_paName",
          "type": "string"
        },
        {
          "internalType": "string[]",
          "name": "_paRecords",
          "type": "string[]"
        }
      ],
      "name": "setPatientDetails",
      "outputs": [],
      "payable": false,
      "stateMutability": "nonpayable",
      "type": "function"
    },
    {
      "constant": true,
      "inputs": [
        {
          "internalType": "address",
          "name": "_Id",
          "type": "address"
        }
      ],
      "name": "getPatientDetails",
      "outputs": [
        {
          "internalType": "bool",
          "name": "_state",
          "type": "bool"
        },
        {
          "internalType": "address",
          "name": "_paId",
          "type": "address"
        },
        {
          "internalType": "string",
          "name": "_paName",
          "type": "string"
        },
        {
          "internalType": "string[]",
          "name": "_paRecords",
          "type": "string[]"
        }
      ],
      "payable": false,
      "stateMutability": "view",
      "type": "function"
    },
    {
      "constant": true,
      "inputs": [
        {
          "internalType": "address",
          "name": "_dr",
          "type": "address"
        }
      ],
      "name": "getHealthRecords",
      "outputs": [
        {
          "internalType": "string",
          "name": "_drName",
          "type": "string"
        },
        {
          "internalType": "address",
          "name": "_drId",
          "type": "address"
        },
        {
          "internalType": "string",
          "name": "_paName",
          "type": "string"
        },
        {
          "internalType": "address",
          "name": "_paId",
          "type": "address"
        },
        {
          "internalType": "string",
          "name": "_prescription",
          "type": "string"
        },
        {
          "internalType": "string[]",
          "name": "_rec",
          "type": "string[]"
        }
      ],
      "payable": false,
      "stateMutability": "view",
      "type": "function"
    },
    {
      "constant": false,
      "inputs": [
        {
          "internalType": "address",
          "name": "doctor_id",
          "type": "address"
        },
        {
          "internalType": "uint256",
          "name": "access",
          "type": "uint256"
        }
      ],
      "name": "grantAccessToDoctor",
      "outputs": [],
      "payable": false,
      "stateMutability": "nonpayable",
      "type": "function"
    },
    {
      "constant": true,
      "inputs": [
        {
          "internalType": "address",
          "name": "_paId",
          "type": "address"
        }
      ],
      "name": "getHealthRecordsForDoctor",
      "outputs": [
        {
          "internalType": "string",
          "name": "_drName",
          "type": "string"
        },
        {
          "internalType": "address",
          "name": "_drId",
          "type": "address"
        },
        {
          "internalType": "string",
          "name": "_paName",
          "type": "string"
        },
        {
          "internalType": "address",
          "name": "_pId",
          "type": "address"
        },
        {
          "internalType": "string",
          "name": "_prescription",
          "type": "string"
        },
        {
          "internalType": "string[]",
          "name": "_rec",
          "type": "string[]"
        }
      ],
      "payable": false,
      "stateMutability": "view",
      "type": "function"
    },
    {
      "constant": true,
      "inputs": [
        {
          "internalType": "address",
          "name": "_paId",
          "type": "address"
        }
      ],
      "name": "ret_name",
      "outputs": [
        {
          "internalType": "string",
          "name": "_paName",
          "type": "string"
        }
      ],
      "payable": false,
      "stateMutability": "view",
      "type": "function"
    },
    {
      "constant": true,
      "inputs": [
        {
          "internalType": "address",
          "name": "_paId",
          "type": "address"
        }
      ],
      "name": "ret_records",
      "outputs": [
        {
          "internalType": "string[]",
          "name": "_paRecords",
          "type": "string[]"
        }
      ],
      "payable": false,
      "stateMutability": "view",
      "type": "function"
    }
  ],
  "bytecode": "0x608060405234801561001057600080fd5b5033600460006101000a81548173ffffffffffffffffffffffffffffffffffffffff021916908373ffffffffffffffffffffffffffffffffffffffff160217905550613601806100616000396000f3fe608060405234801561001057600080fd5b50600436106100a95760003560e01c806380cfed0e1161007157806380cfed0e1461017d578063ae021bf614610199578063bab90dbd146101c9578063c88f22a9146101fb578063efe2ccc114610217578063f83009ba1461024a576100a9565b806305e74f69146100ae57806330fa3e60146100de578063506f17731461011057806371f61bfa1461012c5780637827c01a14610148575b600080fd5b6100c860048036036100c39190810190612c63565b61027f565b6040516100d5919061315a565b60405180910390f35b6100f860048036036100f39190810190612c63565b6103aa565b6040516101079392919061317c565b60405180910390f35b61012a60048036036101259190810190612c8c565b610499565b005b61014660048036036101419190810190612d2f565b6105ed565b005b610162600480360361015d9190810190612c63565b6107a4565b6040516101749695949392919061326d565b60405180910390f35b61019760048036036101929190810190612cc8565b610e50565b005b6101b360048036036101ae9190810190612c63565b611016565b6040516101c0919061324b565b60405180910390f35b6101e360048036036101de9190810190612c63565b6110fa565b6040516101f2939291906131ba565b60405180910390f35b61021560048036036102109190810190612dc2565b611327565b005b610231600480360361022c9190810190612c63565b611d3c565b60405161024194939291906131f8565b60405180910390f35b610264600480360361025f9190810190612c63565b61211e565b6040516102769695949392919061326d565b60405180910390f35b6060600160008373ffffffffffffffffffffffffffffffffffffffff1673ffffffffffffffffffffffffffffffffffffffff168152602001908152602001600020600201805480602002602001604051908101604052809291908181526020016000905b8282101561039f578382906000526020600020018054600181600116156101000203166002900480601f01602080910402602001604051908101604052809291908181526020018280546001816001161561010002031660029004801561038b5780601f106103605761010080835404028352916020019161038b565b820191906000526020600020905b81548152906001019060200180831161036e57829003601f168201915b5050505050815260200190600101906102e3565b505050509050919050565b60016020528060005260406000206000915090508060000160009054906101000a900460ff16908060000160019054906101000a900473ffffffffffffffffffffffffffffffffffffffff1690806001018054600181600116156101000203166002900480601f01602080910402602001604051908101604052809291908181526020018280546001816001161561010002031660029004801561048f5780601f106104645761010080835404028352916020019161048f565b820191906000526020600020905b81548152906001019060200180831161047257829003601f168201915b5050505050905083565b60011515600160003373ffffffffffffffffffffffffffffffffffffffff1673ffffffffffffffffffffffffffffffffffffffff16815260200190815260200160002060000160009054906101000a900460ff1615151461052f576040517f08c379a0000000000000000000000000000000000000000000000000000000008152600401610526906132ea565b60405180910390fd5b80600360003373ffffffffffffffffffffffffffffffffffffffff1673ffffffffffffffffffffffffffffffffffffffff16815260200190815260200160002060008473ffffffffffffffffffffffffffffffffffffffff1673ffffffffffffffffffffffffffffffffffffffff168152602001908152602001600020819055507f19dd02d0615ff9058c55159271b51d3d8ead87b40cc392e6dbeca6483cff333382336040516105e1929190613131565b60405180910390a15050565b600115156000803373ffffffffffffffffffffffffffffffffffffffff1673ffffffffffffffffffffffffffffffffffffffff16815260200190815260200160002060000160009054906101000a900460ff16151514610682576040517f08c379a00000000000000000000000000000000000000000000000000000000081526004016106799061334a565b60405180910390fd5b604051806080016040528085151581526020018473ffffffffffffffffffffffffffffffffffffffff16815260200183815260200182815250600160008573ffffffffffffffffffffffffffffffffffffffff1673ffffffffffffffffffffffffffffffffffffffff16815260200190815260200160002060008201518160000160006101000a81548160ff02191690831515021790555060208201518160000160016101000a81548173ffffffffffffffffffffffffffffffffffffffff021916908373ffffffffffffffffffffffffffffffffffffffff160217905550604082015181600101908051906020019061077d929190612888565b50606082015181600201908051906020019061079a929190612908565b5090505050505050565b606060006060600060608060011515600160003373ffffffffffffffffffffffffffffffffffffffff1673ffffffffffffffffffffffffffffffffffffffff16815260200190815260200160002060000160009054906101000a900460ff16151514610845576040517f08c379a000000000000000000000000000000000000000000000000000000000815260040161083c906132ea565b60405180910390fd5b600260008873ffffffffffffffffffffffffffffffffffffffff1673ffffffffffffffffffffffffffffffffffffffff16815260200190815260200160002060003373ffffffffffffffffffffffffffffffffffffffff1673ffffffffffffffffffffffffffffffffffffffff1681526020019081526020016000206000016001018054600181600116156101000203166002900480601f01602080910402602001604051908101604052809291908181526020018280546001816001161561010002031660029004801561095b5780601f106109305761010080835404028352916020019161095b565b820191906000526020600020905b81548152906001019060200180831161093e57829003601f168201915b50505050509550600260008873ffffffffffffffffffffffffffffffffffffffff1673ffffffffffffffffffffffffffffffffffffffff16815260200190815260200160002060003373ffffffffffffffffffffffffffffffffffffffff1673ffffffffffffffffffffffffffffffffffffffff16815260200190815260200160002060000160000160019054906101000a900473ffffffffffffffffffffffffffffffffffffffff169450600260008873ffffffffffffffffffffffffffffffffffffffff1673ffffffffffffffffffffffffffffffffffffffff16815260200190815260200160002060003373ffffffffffffffffffffffffffffffffffffffff1673ffffffffffffffffffffffffffffffffffffffff1681526020019081526020016000206002016001018054600181600116156101000203166002900480601f016020809104026020016040519081016040528092919081815260200182805460018160011615610100020316600290048015610b1d5780601f10610af257610100808354040283529160200191610b1d565b820191906000526020600020905b815481529060010190602001808311610b0057829003601f168201915b50505050509350600260008873ffffffffffffffffffffffffffffffffffffffff1673ffffffffffffffffffffffffffffffffffffffff16815260200190815260200160002060003373ffffffffffffffffffffffffffffffffffffffff1673ffffffffffffffffffffffffffffffffffffffff16815260200190815260200160002060020160000160019054906101000a900473ffffffffffffffffffffffffffffffffffffffff169250600260008873ffffffffffffffffffffffffffffffffffffffff1673ffffffffffffffffffffffffffffffffffffffff16815260200190815260200160002060003373ffffffffffffffffffffffffffffffffffffffff1673ffffffffffffffffffffffffffffffffffffffff1681526020019081526020016000206005016000018054600181600116156101000203166002900480601f016020809104026020016040519081016040528092919081815260200182805460018160011615610100020316600290048015610cdf5780601f10610cb457610100808354040283529160200191610cdf565b820191906000526020600020905b815481529060010190602001808311610cc257829003601f168201915b50505050509150600260008873ffffffffffffffffffffffffffffffffffffffff1673ffffffffffffffffffffffffffffffffffffffff16815260200190815260200160002060003373ffffffffffffffffffffffffffffffffffffffff1673ffffffffffffffffffffffffffffffffffffffff168152602001908152602001600020600601805480602002602001604051908101604052809291908181526020016000905b82821015610e41578382906000526020600020018054600181600116156101000203166002900480601f016020809104026020016040519081016040528092919081815260200182805460018160011615610100020316600290048015610e2d5780601f10610e0257610100808354040283529160200191610e2d565b820191906000526020600020905b815481529060010190602001808311610e1057829003601f168201915b505050505081526020019060010190610d85565b50505050905091939550919395565b600460009054906101000a900473ffffffffffffffffffffffffffffffffffffffff1673ffffffffffffffffffffffffffffffffffffffff163373ffffffffffffffffffffffffffffffffffffffff1614610ee0576040517f08c379a0000000000000000000000000000000000000000000000000000000008152600401610ed79061332a565b60405180910390fd5b604051806060016040528084151581526020018373ffffffffffffffffffffffffffffffffffffffff168152602001828152506000808473ffffffffffffffffffffffffffffffffffffffff1673ffffffffffffffffffffffffffffffffffffffff16815260200190815260200160002060008201518160000160006101000a81548160ff02191690831515021790555060208201518160000160016101000a81548173ffffffffffffffffffffffffffffffffffffffff021916908373ffffffffffffffffffffffffffffffffffffffff1602179055506040820151816001019080519060200190610fd4929190612888565b509050507f83c041d3aeb1dcb1f28cb15e20bdfee5ed1ca3740e487f9cab72e13eeb8595053383604051611009929190613108565b60405180910390a1505050565b6060600160008373ffffffffffffffffffffffffffffffffffffffff1673ffffffffffffffffffffffffffffffffffffffff1681526020019081526020016000206001018054600181600116156101000203166002900480601f0160208091040260200160405190810160405280929190818152602001828054600181600116156101000203166002900480156110ee5780601f106110c3576101008083540402835291602001916110ee565b820191906000526020600020905b8154815290600101906020018083116110d157829003601f168201915b50505050509050919050565b6000806060600460009054906101000a900473ffffffffffffffffffffffffffffffffffffffff1673ffffffffffffffffffffffffffffffffffffffff163373ffffffffffffffffffffffffffffffffffffffff161461118f576040517f08c379a00000000000000000000000000000000000000000000000000000000081526004016111869061332a565b60405180910390fd5b6000808573ffffffffffffffffffffffffffffffffffffffff1673ffffffffffffffffffffffffffffffffffffffff16815260200190815260200160002060000160009054906101000a900460ff1692506000808573ffffffffffffffffffffffffffffffffffffffff1673ffffffffffffffffffffffffffffffffffffffff16815260200190815260200160002060000160019054906101000a900473ffffffffffffffffffffffffffffffffffffffff1691506000808573ffffffffffffffffffffffffffffffffffffffff1673ffffffffffffffffffffffffffffffffffffffff1681526020019081526020016000206001018054600181600116156101000203166002900480601f0160208091040260200160405190810160405280929190818152602001828054600181600116156101000203166002900480156113195780601f106112ee57610100808354040283529160200191611319565b820191906000526020600020905b8154815290600101906020018083116112fc57829003601f168201915b505050505090509193909250565b600115156000803373ffffffffffffffffffffffffffffffffffffffff1673ffffffffffffffffffffffffffffffffffffffff16815260200190815260200160002060000160009054906101000a900460ff161515146113bc576040517f08c379a00000000000000000000000000000000000000000000000000000000081526004016113b39061334a565b60405180910390fd5b6000803373ffffffffffffffffffffffffffffffffffffffff1673ffffffffffffffffffffffffffffffffffffffff168152602001908152602001600020600101600260003373ffffffffffffffffffffffffffffffffffffffff1673ffffffffffffffffffffffffffffffffffffffff16815260200190815260200160002060008473ffffffffffffffffffffffffffffffffffffffff1673ffffffffffffffffffffffffffffffffffffffff168152602001908152602001600020600001600101908054600181600116156101000203166002900461149e929190612968565b506000803373ffffffffffffffffffffffffffffffffffffffff1673ffffffffffffffffffffffffffffffffffffffff16815260200190815260200160002060000160019054906101000a900473ffffffffffffffffffffffffffffffffffffffff16600260003373ffffffffffffffffffffffffffffffffffffffff1673ffffffffffffffffffffffffffffffffffffffff16815260200190815260200160002060008473ffffffffffffffffffffffffffffffffffffffff1673ffffffffffffffffffffffffffffffffffffffff16815260200190815260200160002060000160000160016101000a81548173ffffffffffffffffffffffffffffffffffffffff021916908373ffffffffffffffffffffffffffffffffffffffff1602179055506001600260003373ffffffffffffffffffffffffffffffffffffffff1673ffffffffffffffffffffffffffffffffffffffff16815260200190815260200160002060008473ffffffffffffffffffffffffffffffffffffffff1673ffffffffffffffffffffffffffffffffffffffff16815260200190815260200160002060020160000160006101000a81548160ff02191690831515021790555081600260003373ffffffffffffffffffffffffffffffffffffffff1673ffffffffffffffffffffffffffffffffffffffff16815260200190815260200160002060008473ffffffffffffffffffffffffffffffffffffffff1673ffffffffffffffffffffffffffffffffffffffff16815260200190815260200160002060020160000160016101000a81548173ffffffffffffffffffffffffffffffffffffffff021916908373ffffffffffffffffffffffffffffffffffffffff16021790555082600260003373ffffffffffffffffffffffffffffffffffffffff1673ffffffffffffffffffffffffffffffffffffffff16815260200190815260200160002060008473ffffffffffffffffffffffffffffffffffffffff1673ffffffffffffffffffffffffffffffffffffffff16815260200190815260200160002060020160010190805190602001906117b39291906129ef565b5080600260003373ffffffffffffffffffffffffffffffffffffffff1673ffffffffffffffffffffffffffffffffffffffff16815260200190815260200160002060008473ffffffffffffffffffffffffffffffffffffffff1673ffffffffffffffffffffffffffffffffffffffff168152602001908152602001600020600501600001908051906020019061184a9291906129ef565b50600260003373ffffffffffffffffffffffffffffffffffffffff1673ffffffffffffffffffffffffffffffffffffffff16815260200190815260200160002060008373ffffffffffffffffffffffffffffffffffffffff1673ffffffffffffffffffffffffffffffffffffffff1681526020019081526020016000206006018190806001815401808255809150509060018203906000526020600020016000909192909190915090805190602001906119059291906129ef565b5050600160008373ffffffffffffffffffffffffffffffffffffffff1673ffffffffffffffffffffffffffffffffffffffff1681526020019081526020016000206002018190806001815401808255809150509060018203906000526020600020016000909192909190915090805190602001906119849291906129ef565b5050611cfe600260003373ffffffffffffffffffffffffffffffffffffffff1673ffffffffffffffffffffffffffffffffffffffff16815260200190815260200160002060008473ffffffffffffffffffffffffffffffffffffffff1673ffffffffffffffffffffffffffffffffffffffff16815260200190815260200160002060020160000160009054906101000a900460ff16600260003373ffffffffffffffffffffffffffffffffffffffff1673ffffffffffffffffffffffffffffffffffffffff16815260200190815260200160002060008573ffffffffffffffffffffffffffffffffffffffff1673ffffffffffffffffffffffffffffffffffffffff16815260200190815260200160002060020160000160019054906101000a900473ffffffffffffffffffffffffffffffffffffffff16600260003373ffffffffffffffffffffffffffffffffffffffff1673ffffffffffffffffffffffffffffffffffffffff16815260200190815260200160002060008673ffffffffffffffffffffffffffffffffffffffff1673ffffffffffffffffffffffffffffffffffffffff1681526020019081526020016000206002016001018054600181600116156101000203166002900480601f016020809104026020016040519081016040528092919081815260200182805460018160011615610100020316600290048015611bd25780601f10611ba757610100808354040283529160200191611bd2565b820191906000526020600020905b815481529060010190602001808311611bb557829003601f168201915b5050505050600160008773ffffffffffffffffffffffffffffffffffffffff1673ffffffffffffffffffffffffffffffffffffffff168152602001908152602001600020600201805480602002602001604051908101604052809291908181526020016000905b82821015611cf5578382906000526020600020018054600181600116156101000203166002900480601f016020809104026020016040519081016040528092919081815260200182805460018160011615610100020316600290048015611ce15780601f10611cb657610100808354040283529160200191611ce1565b820191906000526020600020905b815481529060010190602001808311611cc457829003601f168201915b505050505081526020019060010190611c39565b505050506105ed565b7ffd09d3da0077a9ed9d4af05531b2f844c840c94c1e6535e3d2a09a6ae1aa9a523383604051611d2f929190613108565b60405180910390a1505050565b60008060608060011515600160003373ffffffffffffffffffffffffffffffffffffffff1673ffffffffffffffffffffffffffffffffffffffff16815260200190815260200160002060000160009054906101000a900460ff1615151480611e2057506001600360008773ffffffffffffffffffffffffffffffffffffffff1673ffffffffffffffffffffffffffffffffffffffff16815260200190815260200160002060003373ffffffffffffffffffffffffffffffffffffffff1673ffffffffffffffffffffffffffffffffffffffff16815260200190815260200160002054145b611e5f576040517f08c379a0000000000000000000000000000000000000000000000000000000008152600401611e569061330a565b60405180910390fd5b600160008673ffffffffffffffffffffffffffffffffffffffff1673ffffffffffffffffffffffffffffffffffffffff16815260200190815260200160002060000160009054906101000a900460ff169350600160008673ffffffffffffffffffffffffffffffffffffffff1673ffffffffffffffffffffffffffffffffffffffff16815260200190815260200160002060000160019054906101000a900473ffffffffffffffffffffffffffffffffffffffff169250600160008673ffffffffffffffffffffffffffffffffffffffff1673ffffffffffffffffffffffffffffffffffffffff1681526020019081526020016000206001018054600181600116156101000203166002900480601f016020809104026020016040519081016040528092919081815260200182805460018160011615610100020316600290048015611fec5780601f10611fc157610100808354040283529160200191611fec565b820191906000526020600020905b815481529060010190602001808311611fcf57829003601f168201915b50505050509150600160008673ffffffffffffffffffffffffffffffffffffffff1673ffffffffffffffffffffffffffffffffffffffff168152602001908152602001600020600201805480602002602001604051908101604052809291908181526020016000905b82821015612111578382906000526020600020018054600181600116156101000203166002900480601f0160208091040260200160405190810160405280929190818152602001828054600181600116156101000203166002900480156120fd5780601f106120d2576101008083540402835291602001916120fd565b820191906000526020600020905b8154815290600101906020018083116120e057829003601f168201915b505050505081526020019060010190612055565b5050505090509193509193565b6060600060606000606080600115156000803373ffffffffffffffffffffffffffffffffffffffff1673ffffffffffffffffffffffffffffffffffffffff16815260200190815260200160002060000160009054906101000a900460ff161515146121be576040517f08c379a00000000000000000000000000000000000000000000000000000000081526004016121b59061334a565b60405180910390fd5b6001600360008973ffffffffffffffffffffffffffffffffffffffff1673ffffffffffffffffffffffffffffffffffffffff16815260200190815260200160002060003373ffffffffffffffffffffffffffffffffffffffff1673ffffffffffffffffffffffffffffffffffffffff168152602001908152602001600020541461227d576040517f08c379a00000000000000000000000000000000000000000000000000000000081526004016122749061336a565b60405180910390fd5b600260003373ffffffffffffffffffffffffffffffffffffffff1673ffffffffffffffffffffffffffffffffffffffff16815260200190815260200160002060008873ffffffffffffffffffffffffffffffffffffffff1673ffffffffffffffffffffffffffffffffffffffff1681526020019081526020016000206000016001018054600181600116156101000203166002900480601f0160208091040260200160405190810160405280929190818152602001828054600181600116156101000203166002900480156123935780601f1061236857610100808354040283529160200191612393565b820191906000526020600020905b81548152906001019060200180831161237657829003601f168201915b50505050509550600260003373ffffffffffffffffffffffffffffffffffffffff1673ffffffffffffffffffffffffffffffffffffffff16815260200190815260200160002060008873ffffffffffffffffffffffffffffffffffffffff1673ffffffffffffffffffffffffffffffffffffffff16815260200190815260200160002060000160000160019054906101000a900473ffffffffffffffffffffffffffffffffffffffff169450600260003373ffffffffffffffffffffffffffffffffffffffff1673ffffffffffffffffffffffffffffffffffffffff16815260200190815260200160002060008873ffffffffffffffffffffffffffffffffffffffff1673ffffffffffffffffffffffffffffffffffffffff1681526020019081526020016000206002016001018054600181600116156101000203166002900480601f0160208091040260200160405190810160405280929190818152602001828054600181600116156101000203166002900480156125555780601f1061252a57610100808354040283529160200191612555565b820191906000526020600020905b81548152906001019060200180831161253857829003601f168201915b50505050509350600260003373ffffffffffffffffffffffffffffffffffffffff1673ffffffffffffffffffffffffffffffffffffffff16815260200190815260200160002060008873ffffffffffffffffffffffffffffffffffffffff1673ffffffffffffffffffffffffffffffffffffffff16815260200190815260200160002060020160000160019054906101000a900473ffffffffffffffffffffffffffffffffffffffff169250600260003373ffffffffffffffffffffffffffffffffffffffff1673ffffffffffffffffffffffffffffffffffffffff16815260200190815260200160002060008873ffffffffffffffffffffffffffffffffffffffff1673ffffffffffffffffffffffffffffffffffffffff1681526020019081526020016000206005016000018054600181600116156101000203166002900480601f0160208091040260200160405190810160405280929190818152602001828054600181600116156101000203166002900480156127175780601f106126ec57610100808354040283529160200191612717565b820191906000526020600020905b8154815290600101906020018083116126fa57829003601f168201915b50505050509150600260003373ffffffffffffffffffffffffffffffffffffffff1673ffffffffffffffffffffffffffffffffffffffff16815260200190815260200160002060008873ffffffffffffffffffffffffffffffffffffffff1673ffffffffffffffffffffffffffffffffffffffff168152602001908152602001600020600601805480602002602001604051908101604052809291908181526020016000905b82821015612879578382906000526020600020018054600181600116156101000203166002900480601f0160208091040260200160405190810160405280929190818152602001828054600181600116156101000203166002900480156128655780601f1061283a57610100808354040283529160200191612865565b820191906000526020600020905b81548152906001019060200180831161284857829003601f168201915b5050505050815260200190600101906127bd565b50505050905091939550919395565b828054600181600116156101000203166002900490600052602060002090601f016020900481019282601f106128c957805160ff19168380011785556128f7565b828001600101855582156128f7579182015b828111156128f65782518255916020019190600101906128db565b5b5090506129049190612a6f565b5090565b828054828255906000526020600020908101928215612957579160200282015b82811115612956578251829080519060200190612946929190612888565b5091602001919060010190612928565b5b5090506129649190612a94565b5090565b828054600181600116156101000203166002900490600052602060002090601f016020900481019282601f106129a157805485556129de565b828001600101855582156129de57600052602060002091601f016020900482015b828111156129dd5782548255916001019190600101906129c2565b5b5090506129eb9190612a6f565b5090565b828054600181600116156101000203166002900490600052602060002090601f016020900481019282601f10612a3057805160ff1916838001178555612a5e565b82800160010185558215612a5e579182015b82811115612a5d578251825591602001919060010190612a42565b5b509050612a6b9190612a6f565b5090565b612a9191905b80821115612a8d576000816000905550600101612a75565b5090565b90565b612abd91905b80821115612ab95760008181612ab09190612ac0565b50600101612a9a565b5090565b90565b50805460018160011615610100020316600290046000825580601f10612ae65750612b05565b601f016020900490600052602060002090810190612b049190612a6f565b5b50565b600081359050612b1781613579565b92915050565b600082601f830112612b2e57600080fd5b8135612b41612b3c826133b7565b61338a565b9150818183526020840193506020810190508360005b83811015612b875781358601612b6d8882612ba6565b845260208401935060208301925050600181019050612b57565b5050505092915050565b600081359050612ba081613590565b92915050565b600082601f830112612bb757600080fd5b8135612bca612bc5826133df565b61338a565b91508082526020830160208301858383011115612be657600080fd5b612bf1838284613526565b50505092915050565b600082601f830112612c0b57600080fd5b8135612c1e612c198261340b565b61338a565b91508082526020830160208301858383011115612c3a57600080fd5b612c45838284613526565b50505092915050565b600081359050612c5d816135a7565b92915050565b600060208284031215612c7557600080fd5b6000612c8384828501612b08565b91505092915050565b60008060408385031215612c9f57600080fd5b6000612cad85828601612b08565b9250506020612cbe85828601612c4e565b9150509250929050565b600080600060608486031215612cdd57600080fd5b6000612ceb86828701612b91565b9350506020612cfc86828701612b08565b925050604084013567ffffffffffffffff811115612d1957600080fd5b612d2586828701612bfa565b9150509250925092565b60008060008060808587031215612d4557600080fd5b6000612d5387828801612b91565b9450506020612d6487828801612b08565b935050604085013567ffffffffffffffff811115612d8157600080fd5b612d8d87828801612bfa565b925050606085013567ffffffffffffffff811115612daa57600080fd5b612db687828801612b1d565b91505092959194509250565b600080600060608486031215612dd757600080fd5b600084013567ffffffffffffffff811115612df157600080fd5b612dfd86828701612bfa565b9350506020612e0e86828701612b08565b925050604084013567ffffffffffffffff811115612e2b57600080fd5b612e3786828701612bfa565b9150509250925092565b6000612e4d8383612f30565b905092915050565b612e5e816134f0565b82525050565b612e6d816134a8565b82525050565b6000612e7e82613447565b612e888185613475565b935083602082028501612e9a85613437565b8060005b85811015612ed65784840389528151612eb78582612e41565b9450612ec283613468565b925060208a01995050600181019050612e9e565b50829750879550505050505092915050565b612ef1816134ba565b82525050565b6000612f028261345d565b612f0c8185613497565b9350612f1c818560208601613535565b612f2581613568565b840191505092915050565b6000612f3b82613452565b612f458185613486565b9350612f55818560208601613535565b612f5e81613568565b840191505092915050565b6000612f7482613452565b612f7e8185613497565b9350612f8e818560208601613535565b612f9781613568565b840191505092915050565b6000612faf601883613497565b91507f524547495354455245442050415449454e5453204f4e4c5900000000000000006000830152602082019050919050565b6000612fef602783613497565b91507f50415449454e5453204f52204143434553535f4752414e5445445f444f43544f60008301527f5253204f4e4c59000000000000000000000000000000000000000000000000006020830152604082019050919050565b6000613055601583613497565b91507f4f4e4c592041444d494e20495320414c4c4f57454400000000000000000000006000830152602082019050919050565b6000613095601783613497565b91507f5245474953544552454420444f43544f5253204f4e4c590000000000000000006000830152602082019050919050565b60006130d5601583613497565b91507f445220414343455353204e4f54204752414e54454400000000000000000000006000830152602082019050919050565b600060408201905061311d6000830185612e55565b61312a6020830184612e64565b9392505050565b60006040820190506131466000830185612e64565b6131536020830184612e55565b9392505050565b600060208201905081810360008301526131748184612e73565b905092915050565b60006060820190506131916000830186612ee8565b61319e6020830185612e64565b81810360408301526131b08184612f69565b9050949350505050565b60006060820190506131cf6000830186612ee8565b6131dc6020830185612e64565b81810360408301526131ee8184612ef7565b9050949350505050565b600060808201905061320d6000830187612ee8565b61321a6020830186612e64565b818103604083015261322c8185612ef7565b905081810360608301526132408184612e73565b905095945050505050565b600060208201905081810360008301526132658184612ef7565b905092915050565b600060c08201905081810360008301526132878189612ef7565b90506132966020830188612e64565b81810360408301526132a88187612ef7565b90506132b76060830186612e64565b81810360808301526132c98185612ef7565b905081810360a08301526132dd8184612e73565b9050979650505050505050565b6000602082019050818103600083015261330381612fa2565b9050919050565b6000602082019050818103600083015261332381612fe2565b9050919050565b6000602082019050818103600083015261334381613048565b9050919050565b6000602082019050818103600083015261336381613088565b9050919050565b60006020820190508181036000830152613383816130c8565b9050919050565b6000604051905081810181811067ffffffffffffffff821117156133ad57600080fd5b8060405250919050565b600067ffffffffffffffff8211156133ce57600080fd5b602082029050602081019050919050565b600067ffffffffffffffff8211156133f657600080fd5b601f19601f8301169050602081019050919050565b600067ffffffffffffffff82111561342257600080fd5b601f19601f8301169050602081019050919050565b6000819050602082019050919050565b600081519050919050565b600081519050919050565b600081519050919050565b6000602082019050919050565b600082825260208201905092915050565b600082825260208201905092915050565b600082825260208201905092915050565b60006134b3826134c6565b9050919050565b60008115159050919050565b600073ffffffffffffffffffffffffffffffffffffffff82169050919050565b6000819050919050565b60006134fb82613502565b9050919050565b600061350d82613514565b9050919050565b600061351f826134c6565b9050919050565b82818337600083830152505050565b60005b83811015613553578082015181840152602081019050613538565b83811115613562576000848401525b50505050565b6000601f19601f8301169050919050565b613582816134a8565b811461358d57600080fd5b50565b613599816134ba565b81146135a457600080fd5b50565b6135b0816134e6565b81146135bb57600080fd5b5056fea365627a7a72315820e2fbc18cafe5321623c3a62792df940e45e5802b8ea688723183d7eb8109ec496c6578706572696d656e74616cf564736f6c63430005100040",
  "source": "pragma solidity ^0.5.0;\npragma experimental ABIEncoderV2;\n\ncontract hospital1{\n\n    mapping(address=>Doctor) DoctorInfo;\n    mapping(address=>Patient) public PatientInfo;\n    mapping(address=> mapping(address => HealthRecords)) HealthInfo;\n    mapping (address => mapping (address => uint)) private patientToDoctor;\n\n\n    event DrDetailsAdded(address admin, address doctor);\n    event HealthRecordsAdded(address dr, address patient);\n    event GrantAccessToDr(address dr, address patient);\n\n    modifier OnlyOwner(){\n        require(msg.sender == owner,\"ONLY ADMIN IS ALLOWED\");\n        _;\n    }\n    \n    modifier Only_Doctors{\n        require(DoctorInfo[msg.sender].state == true,\"REGISTERED DOCTORS ONLY\");\n        _;\n    }\n    \n    modifier Only_Patients{\n        require(PatientInfo[msg.sender].state == true,\"REGISTERED PATIENTS ONLY\");\n        _;\n    }\n    \n    address owner;\n    \n    constructor() public{\n        owner = msg.sender;\n    }\n    \n    struct Doctor{\n        bool state; // To check whether the doctor is registered or not\n        address dr_Id; // Address of doctor\n        string d_Name; // Name of doctor\n    }\n    \n    struct Patient{\n        bool state; // To check whether patient is genuine\n        address pa_Id; // Address of registered patient\n        string pa_Name; // Name of Patient Name\n        string[] pa_Records; // Used to store the prescription records of corresponding patients\n    }\n    \n    struct PrescriptionDetails{\n        string prescription; // prescription details of patient given by doctor\n    }\n    \n    struct HealthRecords{\n        Doctor d;\n        Patient p;\n        PrescriptionDetails pre;\n        string[] records; // Used to store prescription records of patient w.r.t doctor\n    }\n    \n\n    \n    // Function to add Doctor details, done by admin only\n    function setDoctorDetails(bool _state,address _drId,string memory _name) public OnlyOwner {\n        DoctorInfo[_drId] = Doctor(_state,_drId,_name);\n        emit DrDetailsAdded(msg.sender, _drId);\n    }\n    \n    \n    \n    // Function to get Doctor details for admin\n    function getDoctorDetails(address _Id) public OnlyOwner view returns(bool _state,address _drId,string memory _name){\n        _state = DoctorInfo[_Id].state;\n        _drId = DoctorInfo[_Id].dr_Id;\n        _name = DoctorInfo[_Id].d_Name;\n    }\n    \n    \n    \n    // Function to add HealthRecords of patients, done by registered doctors only\n    function setHealthRecordsDetails(string memory _paName, address _paId, string memory _prescription) public Only_Doctors{\n        \n        HealthInfo[msg.sender][_paId].d.d_Name = DoctorInfo[msg.sender].d_Name; \n        HealthInfo[msg.sender][_paId].d.dr_Id = DoctorInfo[msg.sender].dr_Id;\n        HealthInfo[msg.sender][_paId].p.state = true;\n        HealthInfo[msg.sender][_paId].p.pa_Id = _paId;\n        HealthInfo[msg.sender][_paId].p.pa_Name = _paName;\n        HealthInfo[msg.sender][_paId].pre.prescription = _prescription;\n        HealthInfo[msg.sender][_paId].records.push(_prescription);\n        PatientInfo[_paId].pa_Records.push(_prescription);\n        setPatientDetails(HealthInfo[msg.sender][_paId].p.state,HealthInfo[msg.sender][_paId].p.pa_Id,HealthInfo[msg.sender][_paId].p.pa_Name,PatientInfo[_paId].pa_Records);\n        emit HealthRecordsAdded(msg.sender, _paId);\n    }\n    \n    \n    \n    // Function to add Patient details, done by registered doctors only\n    function setPatientDetails(bool _state,address _paId,string memory _paName,string[] memory _paRecords) public Only_Doctors{\n        PatientInfo[_paId] = Patient(_state,_paId,_paName,_paRecords);\n    }\n    \n    \n    \n    // Function to get Patient details\n    function getPatientDetails(address _Id) public view returns(bool _state,address _paId,string memory _paName,string[] memory _paRecords){\n       require(PatientInfo[msg.sender].state == true || patientToDoctor[_Id][msg.sender] == 1,\"PATIENTS OR ACCESS_GRANTED_DOCTORS ONLY\");\n        _state = PatientInfo[_Id].state;\n        _paId = PatientInfo[_Id].pa_Id;\n        _paName = PatientInfo[_Id].pa_Name;\n        _paRecords = PatientInfo[_Id].pa_Records;\n        \n    }\n    \n    \n    \n    // Function to get HealthRecords only for registered patients\n    function getHealthRecords(address _dr) Only_Patients public view returns(string memory _drName, address _drId, string memory _paName, address _paId,string memory _prescription,string[] memory _rec) {\n        _drName = HealthInfo[_dr][msg.sender].d.d_Name;\n        _drId = HealthInfo[_dr][msg.sender].d.dr_Id;\n        _paName = HealthInfo[_dr][msg.sender].p.pa_Name;\n        _paId = HealthInfo[_dr][msg.sender].p.pa_Id;\n        _prescription = HealthInfo[_dr][msg.sender].pre.prescription;\n        _rec = HealthInfo[_dr][msg.sender].records;\n    }\n\n\n\n    // Function to grant or revoke access to doctor ,so that the doctors with access can view the corresponding patients HealthRecords\n    function grantAccessToDoctor(address doctor_id,uint access) public Only_Patients{\n    \tpatientToDoctor[msg.sender][doctor_id] = access;\n        emit GrantAccessToDr(doctor_id,msg.sender);\n      }\n  \t\n  \t\n  \t\n  \t// Function to get HealthRecords only for registered Doctors\n  \tfunction getHealthRecordsForDoctor(address _paId) public Only_Doctors view returns(string memory _drName, address _drId, string memory _paName, address _pId,string memory _prescription,string[] memory _rec){\n\t\trequire(patientToDoctor[_paId][msg.sender] == 1,\"DR ACCESS NOT GRANTED\");\n\t\t_drName = HealthInfo[msg.sender][_paId].d.d_Name;\n        _drId = HealthInfo[msg.sender][_paId].d.dr_Id;\n        _paName = HealthInfo[msg.sender][_paId].p.pa_Name;\n        _pId = HealthInfo[msg.sender][_paId].p.pa_Id; \n        _prescription = HealthInfo[msg.sender][_paId].pre.prescription;\n        _rec = HealthInfo[msg.sender][_paId].records;\n\t}\n\n    // =====================================================================\n\n    function ret_name(address _paId) public view returns(string memory _paName){\n        _paName = PatientInfo[_paId].pa_Name;\n    }\n\n    function ret_records(address _paId) public view returns(string[] memory _paRecords){\n        _paRecords = PatientInfo[_paId].pa_Records;\n    }\n\n\n\n}",
  "sourcePath": "/home/anwesh/Projects/MedBlocks/contracts/medical1.sol",
  "compiler": {
    "name": "solc",
    "version": "0.5.16+commit.9c3226ce.Emscripten.clang"
  },
  "schemaVersion": "3.2.3",
  "updatedAt": "2022-07-16T10:51:19.051Z",
  "devdoc": {
    "methods": {}
  },
  "userdoc": {
    "methods": {}
  }
}