{
  "contractName": "hospital2",
  "abi": [
    {
      "inputs": [],
      "payable": false,
      "stateMutability": "nonpayable",
      "type": "constructor"
    },
    {
      "anonymous": false,
      "inputs": [
        {
          "indexed": false,
          "internalType": "address",
          "name": "admin",
          "type": "address"
        },
        {
          "indexed": false,
          "internalType": "address",
          "name": "doctor",
          "type": "address"
        }
      ],
      "name": "DrDetailsAdded",
      "type": "event"
    },
    {
      "anonymous": false,
      "inputs": [
        {
          "indexed": false,
          "internalType": "address",
          "name": "dr",
          "type": "address"
        },
        {
          "indexed": false,
          "internalType": "address",
          "name": "patient",
          "type": "address"
        }
      ],
      "name": "GrantAccessToDr",
      "type": "event"
    },
    {
      "anonymous": false,
      "inputs": [
        {
          "indexed": false,
          "internalType": "address",
          "name": "dr",
          "type": "address"
        },
        {
          "indexed": false,
          "internalType": "address",
          "name": "patient",
          "type": "address"
        }
      ],
      "name": "HealthRecordsAdded",
      "type": "event"
    },
    {
      "constant": true,
      "inputs": [
        {
          "internalType": "address",
          "name": "hosp1_addr",
          "type": "address"
        },
        {
          "internalType": "address",
          "name": "_Id",
          "type": "address"
        }
      ],
      "name": "hospital1Patients",
      "outputs": [
        {
          "internalType": "bool",
          "name": "_state",
          "type": "bool"
        },
        {
          "internalType": "address",
          "name": "_paId",
          "type": "address"
        },
        {
          "internalType": "string",
          "name": "_paName",
          "type": "string"
        },
        {
          "internalType": "string[]",
          "name": "_paRecords",
          "type": "string[]"
        }
      ],
      "payable": false,
      "stateMutability": "view",
      "type": "function"
    },
    {
      "constant": false,
      "inputs": [
        {
          "internalType": "bool",
          "name": "_state",
          "type": "bool"
        },
        {
          "internalType": "address",
          "name": "_drId",
          "type": "address"
        },
        {
          "internalType": "string",
          "name": "_name",
          "type": "string"
        }
      ],
      "name": "setDoctorDetails",
      "outputs": [],
      "payable": false,
      "stateMutability": "nonpayable",
      "type": "function"
    },
    {
      "constant": true,
      "inputs": [
        {
          "internalType": "address",
          "name": "_Id",
          "type": "address"
        }
      ],
      "name": "getDoctorDetails",
      "outputs": [
        {
          "internalType": "bool",
          "name": "_state",
          "type": "bool"
        },
        {
          "internalType": "address",
          "name": "_drId",
          "type": "address"
        },
        {
          "internalType": "string",
          "name": "_name",
          "type": "string"
        }
      ],
      "payable": false,
      "stateMutability": "view",
      "type": "function"
    },
    {
      "constant": false,
      "inputs": [
        {
          "internalType": "string",
          "name": "_paName",
          "type": "string"
        },
        {
          "internalType": "address",
          "name": "_paId",
          "type": "address"
        },
        {
          "internalType": "string",
          "name": "_prescription",
          "type": "string"
        }
      ],
      "name": "setHealthRecordsDetails",
      "outputs": [],
      "payable": false,
      "stateMutability": "nonpayable",
      "type": "function"
    },
    {
      "constant": false,
      "inputs": [
        {
          "internalType": "bool",
          "name": "_state",
          "type": "bool"
        },
        {
          "internalType": "address",
          "name": "_paId",
          "type": "address"
        },
        {
          "internalType": "string",
          "name": "_paName",
          "type": "string"
        },
        {
          "internalType": "string[]",
          "name": "_paRecords",
          "type": "string[]"
        }
      ],
      "name": "setPatientDetails",
      "outputs": [],
      "payable": false,
      "stateMutability": "nonpayable",
      "type": "function"
    },
    {
      "constant": true,
      "inputs": [
        {
          "internalType": "address",
          "name": "_Id",
          "type": "address"
        }
      ],
      "name": "getPatientDetails",
      "outputs": [
        {
          "internalType": "bool",
          "name": "_state",
          "type": "bool"
        },
        {
          "internalType": "address",
          "name": "_paId",
          "type": "address"
        },
        {
          "internalType": "string",
          "name": "_paName",
          "type": "string"
        },
        {
          "internalType": "string[]",
          "name": "_paRecords",
          "type": "string[]"
        }
      ],
      "payable": false,
      "stateMutability": "view",
      "type": "function"
    },
    {
      "constant": true,
      "inputs": [
        {
          "internalType": "address",
          "name": "_dr",
          "type": "address"
        }
      ],
      "name": "getHealthRecords",
      "outputs": [
        {
          "internalType": "string",
          "name": "_drName",
          "type": "string"
        },
        {
          "internalType": "address",
          "name": "_drId",
          "type": "address"
        },
        {
          "internalType": "string",
          "name": "_paName",
          "type": "string"
        },
        {
          "internalType": "address",
          "name": "_paId",
          "type": "address"
        },
        {
          "internalType": "string",
          "name": "_prescription",
          "type": "string"
        },
        {
          "internalType": "string[]",
          "name": "_rec",
          "type": "string[]"
        }
      ],
      "payable": false,
      "stateMutability": "view",
      "type": "function"
    },
    {
      "constant": false,
      "inputs": [
        {
          "internalType": "address",
          "name": "doctor_id",
          "type": "address"
        },
        {
          "internalType": "uint256",
          "name": "access",
          "type": "uint256"
        }
      ],
      "name": "grantAccessToDoctor",
      "outputs": [],
      "payable": false,
      "stateMutability": "nonpayable",
      "type": "function"
    },
    {
      "constant": true,
      "inputs": [
        {
          "internalType": "address",
          "name": "_paId",
          "type": "address"
        }
      ],
      "name": "getHealthRecordsForDoctor",
      "outputs": [
        {
          "internalType": "string",
          "name": "_drName",
          "type": "string"
        },
        {
          "internalType": "address",
          "name": "_drId",
          "type": "address"
        },
        {
          "internalType": "string",
          "name": "_paName",
          "type": "string"
        },
        {
          "internalType": "address",
          "name": "_pId",
          "type": "address"
        },
        {
          "internalType": "string",
          "name": "_prescription",
          "type": "string"
        },
        {
          "internalType": "string[]",
          "name": "_rec",
          "type": "string[]"
        }
      ],
      "payable": false,
      "stateMutability": "view",
      "type": "function"
    }
  ],
  "bytecode": "0x608060405234801561001057600080fd5b5033600460006101000a81548173ffffffffffffffffffffffffffffffffffffffff021916908373ffffffffffffffffffffffffffffffffffffffff1602179055506136d1806100616000396000f3fe608060405234801561001057600080fd5b50600436106100935760003560e01c806398feba831161006657806398feba8314610121578063bab90dbd14610154578063c88f22a914610186578063efe2ccc1146101a2578063f83009ba146101d557610093565b8063506f17731461009857806371f61bfa146100b45780637827c01a146100d057806380cfed0e14610105575b600080fd5b6100b260048036036100ad9190810190612d7a565b61020a565b005b6100ce60048036036100c99190810190612e5e565b61035e565b005b6100ea60048036036100e59190810190612d15565b610515565b6040516100fc9695949392919061333d565b60405180910390f35b61011f600480360361011a9190810190612df7565b610bc1565b005b61013b60048036036101369190810190612d3e565b610d87565b60405161014b94939291906132ea565b60405180910390f35b61016e60048036036101699190810190612d15565b611090565b60405161017d939291906132ac565b60405180910390f35b6101a0600480360361019b9190810190612f32565b6112bd565b005b6101bc60048036036101b79190810190612d15565b611cd2565b6040516101cc94939291906132ea565b60405180910390f35b6101ef60048036036101ea9190810190612d15565b6120b4565b6040516102019695949392919061333d565b60405180910390f35b60011515600160003373ffffffffffffffffffffffffffffffffffffffff1673ffffffffffffffffffffffffffffffffffffffff16815260200190815260200160002060000160009054906101000a900460ff161515146102a0576040517f08c379a0000000000000000000000000000000000000000000000000000000008152600401610297906133ba565b60405180910390fd5b80600360003373ffffffffffffffffffffffffffffffffffffffff1673ffffffffffffffffffffffffffffffffffffffff16815260200190815260200160002060008473ffffffffffffffffffffffffffffffffffffffff1673ffffffffffffffffffffffffffffffffffffffff168152602001908152602001600020819055507f19dd02d0615ff9058c55159271b51d3d8ead87b40cc392e6dbeca6483cff33338233604051610352929190613283565b60405180910390a15050565b600115156000803373ffffffffffffffffffffffffffffffffffffffff1673ffffffffffffffffffffffffffffffffffffffff16815260200190815260200160002060000160009054906101000a900460ff161515146103f3576040517f08c379a00000000000000000000000000000000000000000000000000000000081526004016103ea9061341a565b60405180910390fd5b604051806080016040528085151581526020018473ffffffffffffffffffffffffffffffffffffffff16815260200183815260200182815250600160008573ffffffffffffffffffffffffffffffffffffffff1673ffffffffffffffffffffffffffffffffffffffff16815260200190815260200160002060008201518160000160006101000a81548160ff02191690831515021790555060208201518160000160016101000a81548173ffffffffffffffffffffffffffffffffffffffff021916908373ffffffffffffffffffffffffffffffffffffffff16021790555060408201518160010190805190602001906104ee92919061281e565b50606082015181600201908051906020019061050b92919061289e565b5090505050505050565b606060006060600060608060011515600160003373ffffffffffffffffffffffffffffffffffffffff1673ffffffffffffffffffffffffffffffffffffffff16815260200190815260200160002060000160009054906101000a900460ff161515146105b6576040517f08c379a00000000000000000000000000000000000000000000000000000000081526004016105ad906133ba565b60405180910390fd5b600260008873ffffffffffffffffffffffffffffffffffffffff1673ffffffffffffffffffffffffffffffffffffffff16815260200190815260200160002060003373ffffffffffffffffffffffffffffffffffffffff1673ffffffffffffffffffffffffffffffffffffffff1681526020019081526020016000206000016001018054600181600116156101000203166002900480601f0160208091040260200160405190810160405280929190818152602001828054600181600116156101000203166002900480156106cc5780601f106106a1576101008083540402835291602001916106cc565b820191906000526020600020905b8154815290600101906020018083116106af57829003601f168201915b50505050509550600260008873ffffffffffffffffffffffffffffffffffffffff1673ffffffffffffffffffffffffffffffffffffffff16815260200190815260200160002060003373ffffffffffffffffffffffffffffffffffffffff1673ffffffffffffffffffffffffffffffffffffffff16815260200190815260200160002060000160000160019054906101000a900473ffffffffffffffffffffffffffffffffffffffff169450600260008873ffffffffffffffffffffffffffffffffffffffff1673ffffffffffffffffffffffffffffffffffffffff16815260200190815260200160002060003373ffffffffffffffffffffffffffffffffffffffff1673ffffffffffffffffffffffffffffffffffffffff1681526020019081526020016000206002016001018054600181600116156101000203166002900480601f01602080910402602001604051908101604052809291908181526020018280546001816001161561010002031660029004801561088e5780601f106108635761010080835404028352916020019161088e565b820191906000526020600020905b81548152906001019060200180831161087157829003601f168201915b50505050509350600260008873ffffffffffffffffffffffffffffffffffffffff1673ffffffffffffffffffffffffffffffffffffffff16815260200190815260200160002060003373ffffffffffffffffffffffffffffffffffffffff1673ffffffffffffffffffffffffffffffffffffffff16815260200190815260200160002060020160000160019054906101000a900473ffffffffffffffffffffffffffffffffffffffff169250600260008873ffffffffffffffffffffffffffffffffffffffff1673ffffffffffffffffffffffffffffffffffffffff16815260200190815260200160002060003373ffffffffffffffffffffffffffffffffffffffff1673ffffffffffffffffffffffffffffffffffffffff1681526020019081526020016000206005016000018054600181600116156101000203166002900480601f016020809104026020016040519081016040528092919081815260200182805460018160011615610100020316600290048015610a505780601f10610a2557610100808354040283529160200191610a50565b820191906000526020600020905b815481529060010190602001808311610a3357829003601f168201915b50505050509150600260008873ffffffffffffffffffffffffffffffffffffffff1673ffffffffffffffffffffffffffffffffffffffff16815260200190815260200160002060003373ffffffffffffffffffffffffffffffffffffffff1673ffffffffffffffffffffffffffffffffffffffff168152602001908152602001600020600601805480602002602001604051908101604052809291908181526020016000905b82821015610bb2578382906000526020600020018054600181600116156101000203166002900480601f016020809104026020016040519081016040528092919081815260200182805460018160011615610100020316600290048015610b9e5780601f10610b7357610100808354040283529160200191610b9e565b820191906000526020600020905b815481529060010190602001808311610b8157829003601f168201915b505050505081526020019060010190610af6565b50505050905091939550919395565b600460009054906101000a900473ffffffffffffffffffffffffffffffffffffffff1673ffffffffffffffffffffffffffffffffffffffff163373ffffffffffffffffffffffffffffffffffffffff1614610c51576040517f08c379a0000000000000000000000000000000000000000000000000000000008152600401610c48906133fa565b60405180910390fd5b604051806060016040528084151581526020018373ffffffffffffffffffffffffffffffffffffffff168152602001828152506000808473ffffffffffffffffffffffffffffffffffffffff1673ffffffffffffffffffffffffffffffffffffffff16815260200190815260200160002060008201518160000160006101000a81548160ff02191690831515021790555060208201518160000160016101000a81548173ffffffffffffffffffffffffffffffffffffffff021916908373ffffffffffffffffffffffffffffffffffffffff1602179055506040820151816001019080519060200190610d4592919061281e565b509050507f83c041d3aeb1dcb1f28cb15e20bdfee5ed1ca3740e487f9cab72e13eeb8595053383604051610d7a92919061325a565b60405180910390a1505050565b600080606080600086905060011515600160003373ffffffffffffffffffffffffffffffffffffffff1673ffffffffffffffffffffffffffffffffffffffff16815260200190815260200160002060000160009054906101000a900460ff1615151480610e7057506001600360008873ffffffffffffffffffffffffffffffffffffffff1673ffffffffffffffffffffffffffffffffffffffff16815260200190815260200160002060003373ffffffffffffffffffffffffffffffffffffffff1673ffffffffffffffffffffffffffffffffffffffff16815260200190815260200160002054145b610eaf576040517f08c379a0000000000000000000000000000000000000000000000000000000008152600401610ea6906133da565b60405180910390fd5b600160008773ffffffffffffffffffffffffffffffffffffffff1673ffffffffffffffffffffffffffffffffffffffff16815260200190815260200160002060000160009054906101000a900460ff169450600160008773ffffffffffffffffffffffffffffffffffffffff1673ffffffffffffffffffffffffffffffffffffffff16815260200190815260200160002060000160019054906101000a900473ffffffffffffffffffffffffffffffffffffffff1693508073ffffffffffffffffffffffffffffffffffffffff1663ae021bf6876040518263ffffffff1660e01b8152600401610f9f919061323f565b60006040518083038186803b158015610fb757600080fd5b505afa158015610fcb573d6000803e3d6000fd5b505050506040513d6000823e3d601f19601f82011682018060405250610ff49190810190612ef1565b92508073ffffffffffffffffffffffffffffffffffffffff166305e74f69876040518263ffffffff1660e01b815260040161102f919061323f565b60006040518083038186803b15801561104757600080fd5b505afa15801561105b573d6000803e3d6000fd5b505050506040513d6000823e3d601f19601f820116820180604052506110849190810190612db6565b91505092959194509250565b6000806060600460009054906101000a900473ffffffffffffffffffffffffffffffffffffffff1673ffffffffffffffffffffffffffffffffffffffff163373ffffffffffffffffffffffffffffffffffffffff1614611125576040517f08c379a000000000000000000000000000000000000000000000000000000000815260040161111c906133fa565b60405180910390fd5b6000808573ffffffffffffffffffffffffffffffffffffffff1673ffffffffffffffffffffffffffffffffffffffff16815260200190815260200160002060000160009054906101000a900460ff1692506000808573ffffffffffffffffffffffffffffffffffffffff1673ffffffffffffffffffffffffffffffffffffffff16815260200190815260200160002060000160019054906101000a900473ffffffffffffffffffffffffffffffffffffffff1691506000808573ffffffffffffffffffffffffffffffffffffffff1673ffffffffffffffffffffffffffffffffffffffff1681526020019081526020016000206001018054600181600116156101000203166002900480601f0160208091040260200160405190810160405280929190818152602001828054600181600116156101000203166002900480156112af5780601f10611284576101008083540402835291602001916112af565b820191906000526020600020905b81548152906001019060200180831161129257829003601f168201915b505050505090509193909250565b600115156000803373ffffffffffffffffffffffffffffffffffffffff1673ffffffffffffffffffffffffffffffffffffffff16815260200190815260200160002060000160009054906101000a900460ff16151514611352576040517f08c379a00000000000000000000000000000000000000000000000000000000081526004016113499061341a565b60405180910390fd5b6000803373ffffffffffffffffffffffffffffffffffffffff1673ffffffffffffffffffffffffffffffffffffffff168152602001908152602001600020600101600260003373ffffffffffffffffffffffffffffffffffffffff1673ffffffffffffffffffffffffffffffffffffffff16815260200190815260200160002060008473ffffffffffffffffffffffffffffffffffffffff1673ffffffffffffffffffffffffffffffffffffffff16815260200190815260200160002060000160010190805460018160011615610100020316600290046114349291906128fe565b506000803373ffffffffffffffffffffffffffffffffffffffff1673ffffffffffffffffffffffffffffffffffffffff16815260200190815260200160002060000160019054906101000a900473ffffffffffffffffffffffffffffffffffffffff16600260003373ffffffffffffffffffffffffffffffffffffffff1673ffffffffffffffffffffffffffffffffffffffff16815260200190815260200160002060008473ffffffffffffffffffffffffffffffffffffffff1673ffffffffffffffffffffffffffffffffffffffff16815260200190815260200160002060000160000160016101000a81548173ffffffffffffffffffffffffffffffffffffffff021916908373ffffffffffffffffffffffffffffffffffffffff1602179055506001600260003373ffffffffffffffffffffffffffffffffffffffff1673ffffffffffffffffffffffffffffffffffffffff16815260200190815260200160002060008473ffffffffffffffffffffffffffffffffffffffff1673ffffffffffffffffffffffffffffffffffffffff16815260200190815260200160002060020160000160006101000a81548160ff02191690831515021790555081600260003373ffffffffffffffffffffffffffffffffffffffff1673ffffffffffffffffffffffffffffffffffffffff16815260200190815260200160002060008473ffffffffffffffffffffffffffffffffffffffff1673ffffffffffffffffffffffffffffffffffffffff16815260200190815260200160002060020160000160016101000a81548173ffffffffffffffffffffffffffffffffffffffff021916908373ffffffffffffffffffffffffffffffffffffffff16021790555082600260003373ffffffffffffffffffffffffffffffffffffffff1673ffffffffffffffffffffffffffffffffffffffff16815260200190815260200160002060008473ffffffffffffffffffffffffffffffffffffffff1673ffffffffffffffffffffffffffffffffffffffff1681526020019081526020016000206002016001019080519060200190611749929190612985565b5080600260003373ffffffffffffffffffffffffffffffffffffffff1673ffffffffffffffffffffffffffffffffffffffff16815260200190815260200160002060008473ffffffffffffffffffffffffffffffffffffffff1673ffffffffffffffffffffffffffffffffffffffff16815260200190815260200160002060050160000190805190602001906117e0929190612985565b50600260003373ffffffffffffffffffffffffffffffffffffffff1673ffffffffffffffffffffffffffffffffffffffff16815260200190815260200160002060008373ffffffffffffffffffffffffffffffffffffffff1673ffffffffffffffffffffffffffffffffffffffff16815260200190815260200160002060060181908060018154018082558091505090600182039060005260206000200160009091929091909150908051906020019061189b929190612985565b5050600160008373ffffffffffffffffffffffffffffffffffffffff1673ffffffffffffffffffffffffffffffffffffffff16815260200190815260200160002060020181908060018154018082558091505090600182039060005260206000200160009091929091909150908051906020019061191a929190612985565b5050611c94600260003373ffffffffffffffffffffffffffffffffffffffff1673ffffffffffffffffffffffffffffffffffffffff16815260200190815260200160002060008473ffffffffffffffffffffffffffffffffffffffff1673ffffffffffffffffffffffffffffffffffffffff16815260200190815260200160002060020160000160009054906101000a900460ff16600260003373ffffffffffffffffffffffffffffffffffffffff1673ffffffffffffffffffffffffffffffffffffffff16815260200190815260200160002060008573ffffffffffffffffffffffffffffffffffffffff1673ffffffffffffffffffffffffffffffffffffffff16815260200190815260200160002060020160000160019054906101000a900473ffffffffffffffffffffffffffffffffffffffff16600260003373ffffffffffffffffffffffffffffffffffffffff1673ffffffffffffffffffffffffffffffffffffffff16815260200190815260200160002060008673ffffffffffffffffffffffffffffffffffffffff1673ffffffffffffffffffffffffffffffffffffffff1681526020019081526020016000206002016001018054600181600116156101000203166002900480601f016020809104026020016040519081016040528092919081815260200182805460018160011615610100020316600290048015611b685780601f10611b3d57610100808354040283529160200191611b68565b820191906000526020600020905b815481529060010190602001808311611b4b57829003601f168201915b5050505050600160008773ffffffffffffffffffffffffffffffffffffffff1673ffffffffffffffffffffffffffffffffffffffff168152602001908152602001600020600201805480602002602001604051908101604052809291908181526020016000905b82821015611c8b578382906000526020600020018054600181600116156101000203166002900480601f016020809104026020016040519081016040528092919081815260200182805460018160011615610100020316600290048015611c775780601f10611c4c57610100808354040283529160200191611c77565b820191906000526020600020905b815481529060010190602001808311611c5a57829003601f168201915b505050505081526020019060010190611bcf565b5050505061035e565b7ffd09d3da0077a9ed9d4af05531b2f844c840c94c1e6535e3d2a09a6ae1aa9a523383604051611cc592919061325a565b60405180910390a1505050565b60008060608060011515600160003373ffffffffffffffffffffffffffffffffffffffff1673ffffffffffffffffffffffffffffffffffffffff16815260200190815260200160002060000160009054906101000a900460ff1615151480611db657506001600360008773ffffffffffffffffffffffffffffffffffffffff1673ffffffffffffffffffffffffffffffffffffffff16815260200190815260200160002060003373ffffffffffffffffffffffffffffffffffffffff1673ffffffffffffffffffffffffffffffffffffffff16815260200190815260200160002054145b611df5576040517f08c379a0000000000000000000000000000000000000000000000000000000008152600401611dec906133da565b60405180910390fd5b600160008673ffffffffffffffffffffffffffffffffffffffff1673ffffffffffffffffffffffffffffffffffffffff16815260200190815260200160002060000160009054906101000a900460ff169350600160008673ffffffffffffffffffffffffffffffffffffffff1673ffffffffffffffffffffffffffffffffffffffff16815260200190815260200160002060000160019054906101000a900473ffffffffffffffffffffffffffffffffffffffff169250600160008673ffffffffffffffffffffffffffffffffffffffff1673ffffffffffffffffffffffffffffffffffffffff1681526020019081526020016000206001018054600181600116156101000203166002900480601f016020809104026020016040519081016040528092919081815260200182805460018160011615610100020316600290048015611f825780601f10611f5757610100808354040283529160200191611f82565b820191906000526020600020905b815481529060010190602001808311611f6557829003601f168201915b50505050509150600160008673ffffffffffffffffffffffffffffffffffffffff1673ffffffffffffffffffffffffffffffffffffffff168152602001908152602001600020600201805480602002602001604051908101604052809291908181526020016000905b828210156120a7578382906000526020600020018054600181600116156101000203166002900480601f0160208091040260200160405190810160405280929190818152602001828054600181600116156101000203166002900480156120935780601f1061206857610100808354040283529160200191612093565b820191906000526020600020905b81548152906001019060200180831161207657829003601f168201915b505050505081526020019060010190611feb565b5050505090509193509193565b6060600060606000606080600115156000803373ffffffffffffffffffffffffffffffffffffffff1673ffffffffffffffffffffffffffffffffffffffff16815260200190815260200160002060000160009054906101000a900460ff16151514612154576040517f08c379a000000000000000000000000000000000000000000000000000000000815260040161214b9061341a565b60405180910390fd5b6001600360008973ffffffffffffffffffffffffffffffffffffffff1673ffffffffffffffffffffffffffffffffffffffff16815260200190815260200160002060003373ffffffffffffffffffffffffffffffffffffffff1673ffffffffffffffffffffffffffffffffffffffff1681526020019081526020016000205414612213576040517f08c379a000000000000000000000000000000000000000000000000000000000815260040161220a9061343a565b60405180910390fd5b600260003373ffffffffffffffffffffffffffffffffffffffff1673ffffffffffffffffffffffffffffffffffffffff16815260200190815260200160002060008873ffffffffffffffffffffffffffffffffffffffff1673ffffffffffffffffffffffffffffffffffffffff1681526020019081526020016000206000016001018054600181600116156101000203166002900480601f0160208091040260200160405190810160405280929190818152602001828054600181600116156101000203166002900480156123295780601f106122fe57610100808354040283529160200191612329565b820191906000526020600020905b81548152906001019060200180831161230c57829003601f168201915b50505050509550600260003373ffffffffffffffffffffffffffffffffffffffff1673ffffffffffffffffffffffffffffffffffffffff16815260200190815260200160002060008873ffffffffffffffffffffffffffffffffffffffff1673ffffffffffffffffffffffffffffffffffffffff16815260200190815260200160002060000160000160019054906101000a900473ffffffffffffffffffffffffffffffffffffffff169450600260003373ffffffffffffffffffffffffffffffffffffffff1673ffffffffffffffffffffffffffffffffffffffff16815260200190815260200160002060008873ffffffffffffffffffffffffffffffffffffffff1673ffffffffffffffffffffffffffffffffffffffff1681526020019081526020016000206002016001018054600181600116156101000203166002900480601f0160208091040260200160405190810160405280929190818152602001828054600181600116156101000203166002900480156124eb5780601f106124c0576101008083540402835291602001916124eb565b820191906000526020600020905b8154815290600101906020018083116124ce57829003601f168201915b50505050509350600260003373ffffffffffffffffffffffffffffffffffffffff1673ffffffffffffffffffffffffffffffffffffffff16815260200190815260200160002060008873ffffffffffffffffffffffffffffffffffffffff1673ffffffffffffffffffffffffffffffffffffffff16815260200190815260200160002060020160000160019054906101000a900473ffffffffffffffffffffffffffffffffffffffff169250600260003373ffffffffffffffffffffffffffffffffffffffff1673ffffffffffffffffffffffffffffffffffffffff16815260200190815260200160002060008873ffffffffffffffffffffffffffffffffffffffff1673ffffffffffffffffffffffffffffffffffffffff1681526020019081526020016000206005016000018054600181600116156101000203166002900480601f0160208091040260200160405190810160405280929190818152602001828054600181600116156101000203166002900480156126ad5780601f10612682576101008083540402835291602001916126ad565b820191906000526020600020905b81548152906001019060200180831161269057829003601f168201915b50505050509150600260003373ffffffffffffffffffffffffffffffffffffffff1673ffffffffffffffffffffffffffffffffffffffff16815260200190815260200160002060008873ffffffffffffffffffffffffffffffffffffffff1673ffffffffffffffffffffffffffffffffffffffff168152602001908152602001600020600601805480602002602001604051908101604052809291908181526020016000905b8282101561280f578382906000526020600020018054600181600116156101000203166002900480601f0160208091040260200160405190810160405280929190818152602001828054600181600116156101000203166002900480156127fb5780601f106127d0576101008083540402835291602001916127fb565b820191906000526020600020905b8154815290600101906020018083116127de57829003601f168201915b505050505081526020019060010190612753565b50505050905091939550919395565b828054600181600116156101000203166002900490600052602060002090601f016020900481019282601f1061285f57805160ff191683800117855561288d565b8280016001018555821561288d579182015b8281111561288c578251825591602001919060010190612871565b5b50905061289a9190612a05565b5090565b8280548282559060005260206000209081019282156128ed579160200282015b828111156128ec5782518290805190602001906128dc92919061281e565b50916020019190600101906128be565b5b5090506128fa9190612a2a565b5090565b828054600181600116156101000203166002900490600052602060002090601f016020900481019282601f106129375780548555612974565b8280016001018555821561297457600052602060002091601f016020900482015b82811115612973578254825591600101919060010190612958565b5b5090506129819190612a05565b5090565b828054600181600116156101000203166002900490600052602060002090601f016020900481019282601f106129c657805160ff19168380011785556129f4565b828001600101855582156129f4579182015b828111156129f35782518255916020019190600101906129d8565b5b509050612a019190612a05565b5090565b612a2791905b80821115612a23576000816000905550600101612a0b565b5090565b90565b612a5391905b80821115612a4f5760008181612a469190612a56565b50600101612a30565b5090565b90565b50805460018160011615610100020316600290046000825580601f10612a7c5750612a9b565b601f016020900490600052602060002090810190612a9a9190612a05565b5b50565b600081359050612aad81613649565b92915050565b600082601f830112612ac457600080fd5b8135612ad7612ad282613487565b61345a565b9150818183526020840193506020810190508360005b83811015612b1d5781358601612b038882612bb0565b845260208401935060208301925050600181019050612aed565b5050505092915050565b600082601f830112612b3857600080fd5b8151612b4b612b4682613487565b61345a565b9150818183526020840193506020810190508360005b83811015612b915781518601612b778882612c04565b845260208401935060208301925050600181019050612b61565b5050505092915050565b600081359050612baa81613660565b92915050565b600082601f830112612bc157600080fd5b8135612bd4612bcf826134af565b61345a565b91508082526020830160208301858383011115612bf057600080fd5b612bfb8382846135f6565b50505092915050565b600082601f830112612c1557600080fd5b8151612c28612c23826134af565b61345a565b91508082526020830160208301858383011115612c4457600080fd5b612c4f838284613605565b50505092915050565b600082601f830112612c6957600080fd5b8135612c7c612c77826134db565b61345a565b91508082526020830160208301858383011115612c9857600080fd5b612ca38382846135f6565b50505092915050565b600082601f830112612cbd57600080fd5b8151612cd0612ccb826134db565b61345a565b91508082526020830160208301858383011115612cec57600080fd5b612cf7838284613605565b50505092915050565b600081359050612d0f81613677565b92915050565b600060208284031215612d2757600080fd5b6000612d3584828501612a9e565b91505092915050565b60008060408385031215612d5157600080fd5b6000612d5f85828601612a9e565b9250506020612d7085828601612a9e565b9150509250929050565b60008060408385031215612d8d57600080fd5b6000612d9b85828601612a9e565b9250506020612dac85828601612d00565b9150509250929050565b600060208284031215612dc857600080fd5b600082015167ffffffffffffffff811115612de257600080fd5b612dee84828501612b27565b91505092915050565b600080600060608486031215612e0c57600080fd5b6000612e1a86828701612b9b565b9350506020612e2b86828701612a9e565b925050604084013567ffffffffffffffff811115612e4857600080fd5b612e5486828701612c58565b9150509250925092565b60008060008060808587031215612e7457600080fd5b6000612e8287828801612b9b565b9450506020612e9387828801612a9e565b935050604085013567ffffffffffffffff811115612eb057600080fd5b612ebc87828801612c58565b925050606085013567ffffffffffffffff811115612ed957600080fd5b612ee587828801612ab3565b91505092959194509250565b600060208284031215612f0357600080fd5b600082015167ffffffffffffffff811115612f1d57600080fd5b612f2984828501612cac565b91505092915050565b600080600060608486031215612f4757600080fd5b600084013567ffffffffffffffff811115612f6157600080fd5b612f6d86828701612c58565b9350506020612f7e86828701612a9e565b925050604084013567ffffffffffffffff811115612f9b57600080fd5b612fa786828701612c58565b9150509250925092565b6000612fbd83836130a0565b905092915050565b612fce816135c0565b82525050565b612fdd81613578565b82525050565b6000612fee82613517565b612ff88185613545565b93508360208202850161300a85613507565b8060005b8581101561304657848403895281516130278582612fb1565b945061303283613538565b925060208a0199505060018101905061300e565b50829750879550505050505092915050565b6130618161358a565b82525050565b60006130728261352d565b61307c8185613567565b935061308c818560208601613605565b61309581613638565b840191505092915050565b60006130ab82613522565b6130b58185613556565b93506130c5818560208601613605565b6130ce81613638565b840191505092915050565b60006130e6601883613567565b91507f524547495354455245442050415449454e5453204f4e4c5900000000000000006000830152602082019050919050565b6000613126602783613567565b91507f50415449454e5453204f52204143434553535f4752414e5445445f444f43544f60008301527f5253204f4e4c59000000000000000000000000000000000000000000000000006020830152604082019050919050565b600061318c601583613567565b91507f4f4e4c592041444d494e20495320414c4c4f57454400000000000000000000006000830152602082019050919050565b60006131cc601783613567565b91507f5245474953544552454420444f43544f5253204f4e4c590000000000000000006000830152602082019050919050565b600061320c601583613567565b91507f445220414343455353204e4f54204752414e54454400000000000000000000006000830152602082019050919050565b60006020820190506132546000830184612fd4565b92915050565b600060408201905061326f6000830185612fc5565b61327c6020830184612fd4565b9392505050565b60006040820190506132986000830185612fd4565b6132a56020830184612fc5565b9392505050565b60006060820190506132c16000830186613058565b6132ce6020830185612fd4565b81810360408301526132e08184613067565b9050949350505050565b60006080820190506132ff6000830187613058565b61330c6020830186612fd4565b818103604083015261331e8185613067565b905081810360608301526133328184612fe3565b905095945050505050565b600060c08201905081810360008301526133578189613067565b90506133666020830188612fd4565b81810360408301526133788187613067565b90506133876060830186612fd4565b81810360808301526133998185613067565b905081810360a08301526133ad8184612fe3565b9050979650505050505050565b600060208201905081810360008301526133d3816130d9565b9050919050565b600060208201905081810360008301526133f381613119565b9050919050565b600060208201905081810360008301526134138161317f565b9050919050565b60006020820190508181036000830152613433816131bf565b9050919050565b60006020820190508181036000830152613453816131ff565b9050919050565b6000604051905081810181811067ffffffffffffffff8211171561347d57600080fd5b8060405250919050565b600067ffffffffffffffff82111561349e57600080fd5b602082029050602081019050919050565b600067ffffffffffffffff8211156134c657600080fd5b601f19601f8301169050602081019050919050565b600067ffffffffffffffff8211156134f257600080fd5b601f19601f8301169050602081019050919050565b6000819050602082019050919050565b600081519050919050565b600081519050919050565b600081519050919050565b6000602082019050919050565b600082825260208201905092915050565b600082825260208201905092915050565b600082825260208201905092915050565b600061358382613596565b9050919050565b60008115159050919050565b600073ffffffffffffffffffffffffffffffffffffffff82169050919050565b6000819050919050565b60006135cb826135d2565b9050919050565b60006135dd826135e4565b9050919050565b60006135ef82613596565b9050919050565b82818337600083830152505050565b60005b83811015613623578082015181840152602081019050613608565b83811115613632576000848401525b50505050565b6000601f19601f8301169050919050565b61365281613578565b811461365d57600080fd5b50565b6136698161358a565b811461367457600080fd5b50565b613680816135b6565b811461368b57600080fd5b5056fea365627a7a723158201685858d41b8e6658fc8df64302ee21911cde863cb5810bc18f0e8ab8ad7a21e6c6578706572696d656e74616cf564736f6c63430005100040",
  "source": "pragma solidity ^0.5.0;\npragma experimental ABIEncoderV2;\n\nimport \"./medical1.sol\";\n\ncontract hospital2{\n\n    mapping(address=>Doctor) DoctorInfo;\n    mapping(address=>Patient) PatientInfo;\n    mapping(address=> mapping(address => HealthRecords)) HealthInfo;\n    mapping (address => mapping (address => uint)) private patientToDoctor;\n\n\n    event DrDetailsAdded(address admin, address doctor);\n    event HealthRecordsAdded(address dr, address patient);\n    event GrantAccessToDr(address dr, address patient);\n\n    modifier OnlyOwner(){\n        require(msg.sender == owner,\"ONLY ADMIN IS ALLOWED\");\n        _;\n    }\n    \n    modifier Only_Doctors{\n        require(DoctorInfo[msg.sender].state == true,\"REGISTERED DOCTORS ONLY\");\n        _;\n    }\n    \n    modifier Only_Patients{\n        require(PatientInfo[msg.sender].state == true,\"REGISTERED PATIENTS ONLY\");\n        _;\n    }\n    \n    address owner;\n    \n    constructor() public{\n        owner = msg.sender;\n    }\n    \n    struct Doctor{\n        bool state; // To check whether the doctor is registered or not\n        address dr_Id; // Address of doctor\n        string d_Name; // Name of doctor\n    }\n    \n    struct Patient{\n        bool state; // To check whether patient is genuine\n        address pa_Id; // Address of registered patient\n        string pa_Name; // Name of Patient Name\n        string[] pa_Records; // Used to store the prescription records of corresponding patients\n    }\n    \n    struct PrescriptionDetails{\n        string prescription; // prescription details of patient given by doctor\n    }\n    \n    struct HealthRecords{\n        Doctor d;\n        Patient p;\n        PrescriptionDetails pre;\n        string[] records; // Used to store prescription records of patient w.r.t doctor\n    }\n    \n\n    function hospital1Patients(address hosp1_addr, address _Id) public view returns(bool _state,address _paId,string memory _paName,string[] memory _paRecords){\n        hospital1 temp = hospital1(hosp1_addr);\n       require(PatientInfo[msg.sender].state == true || patientToDoctor[_Id][msg.sender] == 1,\"PATIENTS OR ACCESS_GRANTED_DOCTORS ONLY\");\n        _state = PatientInfo[_Id].state;\n        _paId = PatientInfo[_Id].pa_Id;\n        _paName = temp.ret_name(_Id);\n        _paRecords = temp.ret_records(_Id);\n    }\n        \n       \n\n    \n    // Function to add Doctor details, done by admin only\n    function setDoctorDetails(bool _state,address _drId,string memory _name) public OnlyOwner {\n        DoctorInfo[_drId] = Doctor(_state,_drId,_name);\n        emit DrDetailsAdded(msg.sender, _drId);\n    }\n    \n    \n    \n    // Function to get Doctor details for admin\n    function getDoctorDetails(address _Id) public OnlyOwner view returns(bool _state,address _drId,string memory _name){\n        _state = DoctorInfo[_Id].state;\n        _drId = DoctorInfo[_Id].dr_Id;\n        _name = DoctorInfo[_Id].d_Name;\n    }\n    \n    \n    \n    // Function to add HealthRecords of patients, done by registered doctors only\n    function setHealthRecordsDetails(string memory _paName, address _paId, string memory _prescription) public Only_Doctors{\n        \n        HealthInfo[msg.sender][_paId].d.d_Name = DoctorInfo[msg.sender].d_Name; \n        HealthInfo[msg.sender][_paId].d.dr_Id = DoctorInfo[msg.sender].dr_Id;\n        HealthInfo[msg.sender][_paId].p.state = true;\n        HealthInfo[msg.sender][_paId].p.pa_Id = _paId;\n        HealthInfo[msg.sender][_paId].p.pa_Name = _paName;\n        HealthInfo[msg.sender][_paId].pre.prescription = _prescription;\n        HealthInfo[msg.sender][_paId].records.push(_prescription);\n        PatientInfo[_paId].pa_Records.push(_prescription);\n        setPatientDetails(HealthInfo[msg.sender][_paId].p.state,HealthInfo[msg.sender][_paId].p.pa_Id,HealthInfo[msg.sender][_paId].p.pa_Name,PatientInfo[_paId].pa_Records);\n        emit HealthRecordsAdded(msg.sender, _paId);\n    }\n    \n    \n    \n    // Function to add Patient details, done by registered doctors only\n    function setPatientDetails(bool _state,address _paId,string memory _paName,string[] memory _paRecords) public Only_Doctors{\n        PatientInfo[_paId] = Patient(_state,_paId,_paName,_paRecords);\n    }\n    \n    \n    \n    // Function to get Patient details\n    function getPatientDetails(address _Id) public view returns(bool _state,address _paId,string memory _paName,string[] memory _paRecords){\n       require(PatientInfo[msg.sender].state == true || patientToDoctor[_Id][msg.sender] == 1,\"PATIENTS OR ACCESS_GRANTED_DOCTORS ONLY\");\n        _state = PatientInfo[_Id].state;\n        _paId = PatientInfo[_Id].pa_Id;\n        _paName = PatientInfo[_Id].pa_Name;\n        _paRecords = PatientInfo[_Id].pa_Records;\n        \n    }\n    \n    \n    \n    // Function to get HealthRecords only for registered patients\n    function getHealthRecords(address _dr) Only_Patients public view returns(string memory _drName, address _drId, string memory _paName, address _paId,string memory _prescription,string[] memory _rec) {\n        _drName = HealthInfo[_dr][msg.sender].d.d_Name;\n        _drId = HealthInfo[_dr][msg.sender].d.dr_Id;\n        _paName = HealthInfo[_dr][msg.sender].p.pa_Name;\n        _paId = HealthInfo[_dr][msg.sender].p.pa_Id;\n        _prescription = HealthInfo[_dr][msg.sender].pre.prescription;\n        _rec = HealthInfo[_dr][msg.sender].records;\n    }\n\n\n\n    // Function to grant or revoke access to doctor ,so that the doctors with access can view the corresponding patients HealthRecords\n    function grantAccessToDoctor(address doctor_id,uint access) public Only_Patients{\n    \tpatientToDoctor[msg.sender][doctor_id] = access;\n        emit GrantAccessToDr(doctor_id,msg.sender);\n      }\n  \t\n  \t\n  \t\n  \t// Function to get HealthRecords only for registered Doctors\n  \tfunction getHealthRecordsForDoctor(address _paId) public Only_Doctors view returns(string memory _drName, address _drId, string memory _paName, address _pId,string memory _prescription,string[] memory _rec){\n\t\trequire(patientToDoctor[_paId][msg.sender] == 1,\"DR ACCESS NOT GRANTED\");\n\t\t_drName = HealthInfo[msg.sender][_paId].d.d_Name;\n        _drId = HealthInfo[msg.sender][_paId].d.dr_Id;\n        _paName = HealthInfo[msg.sender][_paId].p.pa_Name;\n        _pId = HealthInfo[msg.sender][_paId].p.pa_Id; \n        _prescription = HealthInfo[msg.sender][_paId].pre.prescription;\n        _rec = HealthInfo[msg.sender][_paId].records;\n\t}\n\n}\n\n\n\n\n//====================================================================\n    // contract hospital1{\n    //     function setDoctorDetails(bool _state,address _drId,string memory _name) public;\n    //     function getDoctorDetails(address _Id) public  view returns(bool _state,address _drId,string memory _name) ;\n    //     function setHealthRecordsDetails(string memory _paName, address _paId, string memory _prescription) public;\n    //     function setPatientDetails(bool _state,address _paId,string memory _paName,string[] memory _paRecords) public;\n    //     function getPatientDetails(address _Id) public view returns(bool _state,address _paId,string memory _paName,string[] memory _paRecords) ;\n    //     function getHealthRecords(address _dr)  public view returns(string memory _drName, address _drId, string memory _paName, address _paId,string memory _prescription,string[] memory _rec);\n    //     function grantAccessToDoctor(address doctor_id,uint access) public ;\n    //     function getHealthRecordsForDoctor(address _paId) public  view returns(string memory _drName, address _drId, string memory _paName, address _pId,string memory _prescription,string[] memory _rec) ;\n\n    // }\n    \n",
  "sourcePath": "/home/anwesh/Projects/MedBlocks/contracts/medical2.sol",
  "compiler": {
    "name": "solc",
    "version": "0.5.16+commit.9c3226ce.Emscripten.clang"
  },
  "schemaVersion": "3.2.3",
  "updatedAt": "2022-07-16T10:51:19.064Z",
  "devdoc": {
    "methods": {}
  },
  "userdoc": {
    "methods": {}
  }
}